:100000000C9463000C948B000C948B000C948B006C
:100010000C948B000C948B000C948B000C948B0034
:100020000C948B000C948B000C948B000C948B0024
:100030000C948B000C948B000C948B000C948B0014
:100040000C944F030C948B000C94E1010C948B00E6
:100050000C948B000C948B000C948B000C948B00F4
:100060000C948B000C948B000000000024002700EF
:100070002A0000000000250028002B0000000000DE
:1000800023002600290004040404040404040202DA
:100090000202020203030303030301020408102007
:1000A0004080010204081020010204081020000012
:1000B0000007000201000003040600000000000029
:1000C00000009001D60211241FBECFEFD4E0DEBFA6
:1000D000CDBF11E0A0E0B1E0E2EBFAE002C0059094
:1000E0000D92A830B107D9F711E0A8E0B1E001C046
:1000F0001D92A23BB107E1F710E0C6ECD0E004C0CE
:100100002297FE010E945305C23CD107C9F70E9405
:10011000DA010C9457050C940000AF92BF92DF9265
:10012000EF92FF920F931F93CF93DF938C01DD2407
:10013000C0E0D0E0E62EFF248AE0A82EB12CF80122
:10014000808160E00E945104C330D10564F4F8015D
:10015000828161E00E94510460E0209709F461E02F
:10016000F801848106C0CC30D10529F4F8018281E0
:1001700060E00E945104CE010397089778F4B5011E
:100180006C1B7D0BC70102C0959587956A95E2F7B8
:10019000BC016170F80184810E94510481E090E00B
:1001A0000E94E903F801808161E00E94510481E02E
:1001B00090E00E94E903CB30D10529F4F801868153
:1001C0000E949E04D82E2196CD30D10509F0B7CFDC
:1001D000F801808160E00E9451048D2DDF91CF9164
:1001E0001F910F91FF90EF90DF90BF90AF90089517
:1001F000EF92FF920F931F93CF93DF938C01C0E098
:10020000D0E0EE24FF24F801808160E00E945104D8
:10021000C330D1056CF4F801828161E00E94510481
:1002200060E0C230D10509F061E0F801848106C0C8
:10023000CC30D10529F4F801828160E00E9451049C
:1002400081E090E00E94E903F801808161E00E9472
:10025000510481E090E00E94E903CE0103970897E2
:1002600050F4F80186810E949E0420E0019709F471
:1002700021E0FF0CF22ACB30D10549F4F801868148
:100280000E949E04EE24892B11F4EE24E39421961F
:10029000CD30D10509F0B7CFF801808160E00E9430
:1002A00051048F2D86959E2DDF91CF911F910F9137
:1002B000FF90EF900895EF92FF920F931F937C01B0
:1002C000862FF701608371835383428335832483B0
:1002D0001783068361E00E943104F701808160E0AA
:1002E0000E945104F701848161E00E943104F7010A
:1002F000848160E00E945104F701868160E00E94E1
:100300003104F701828161E00E943104F7018281AA
:1003100060E00E9451041F910F91FF90EF900895AB
:100320000F931F9388E091E067E070E048E050E0B1
:1003300026E030E005E010E00E945B011F910F9184
:10034000089588E091E00E94F800682F992369F0F1
:100350008D3029F084E991E00E940D0306C084E904
:1003600091E060E071E00E94440384E991E00E9422
:100370008702882379F084E991E00E949B02682F2C
:100380008A3021F488E091E06DE002C088E091E0DD
:100390000E948D0064E670E080E090E00E94BF0360
:1003A000089584E991E040E855E260E070E00E9441
:1003B0001E0208950E94F7030E94D1010E94A1012C
:1003C000FDCF1F920F920FB60F9211242F933F93E0
:1003D0004F935F936F937F938F939F93AF93BF934D
:1003E000EF93FF934091C600E0919001F09191014D
:1003F000CF01019660E870E00E94ED049C018091BD
:100400009201909193012817390739F0E05FFE4F70
:1004100040833093910120939001FF91EF91BF9120
:10042000AF919F918F917F916F915F914F913F918C
:100430002F910F900FBE0F901F901895AF92BF9203
:10044000CF92DF92EF92FF920F931F93CF93DF93A0
:100450006C017A018B01DC011496AD90BC9015976C
:10046000CB01BA0122E030E040E050E00E942205DA
:10047000205C3D4B404F5F4FCA01B901A801970175
:100480000E942205C901DA010197A109B109292FAA
:100490003A2F4B2F552747FD5A950196A11DB11DA7
:1004A000E5012883E601EE81FF8181508083EA85A2
:1004B000FB85208141E050E0CA010E8402C0880F14
:1004C000991F0A94E2F7282B2083EA85FB85208177
:1004D000CA010F8402C0880F991F0A94E2F7282BE3
:1004E0002083EA85FB858081088802C0440F551F60
:1004F0000A94E2F7842B8083DF91CF911F910F91B3
:10050000FF90EF90DF90CF90BF90AF900895DC0107
:100510001296ED91FC911397E058FF4F81919191C4
:1005200080589F4F20813181821B930B60E870E0DF
:100530000E94ED040895CF93DF93DC011296ED91B4
:10054000FC911397EF01CE57DF4F48815981E05856
:10055000FF4F80819181E058F0408417950719F48E
:100560002FEF3FEF0CC0E40FF51F2081CA01019669
:1005700060E870E00E94ED049983888330E0C9014F
:10058000DF91CF910895FC01A085B18521898C91DF
:1005900090E0022E02C0959587950A94E2F780FFBD
:1005A000F6CF0484F585E02D6083089585E091E021
:1005B000909395018093940180E191E0909397014D
:1005C0008093960185EC90E0909399018093980137
:1005D00084EC90E090939B0180939A0180EC90E0F2
:1005E00090939D0180939C0181EC90E090939F01FA
:1005F00080939E0186EC90E09093A1018093A001EE
:1006000084E08093A20183E08093A30187E080933C
:10061000A40185E08093A5010895DC01ED91FC9192
:100620000190F081E02D099508950F931F93CF93CA
:10063000DF938C01EB0109C02196D801ED91FC916B
:100640000190F081E02DC801099568816623A1F72A
:10065000DF91CF911F910F9108950F931F938C01FC
:10066000DC01ED91FC910190F081E02D6DE00995A8
:10067000D801ED91FC910190F081E02DC8016AE074
:1006800009951F910F9108950F931F938C010E945C
:100690001503C8010E942D031F910F9108951F9209
:1006A0000F920FB60F9211242F938F939F93AF93B6
:1006B000BF938091A6019091A701A091A801B0914C
:1006C000A9010196A11DB11D8093A6019093A701D8
:1006D000A093A801B093A9018091AA019091AB01C8
:1006E000A091AC01B091AD018050904CAF4FBF4F85
:1006F0008093AA019093AB01A093AC01B093AD019C
:1007000027C08091AA019091AB01A091AC01B0915A
:10071000AD0180589E43A040B0408093AA019093C1
:10072000AB01A093AC01B093AD018091AE0190916B
:10073000AF01A091B001B091B1010196A11DB11D11
:100740008093AE019093AF01A093B001B093B1013B
:100750008091AA019091AB01A091AC01B091AD0143
:1007600081589E43A040B04060F6BF91AF919F91E9
:100770008F912F910F900FBE0F901F901895EF92B1
:10078000FF920F931F937B018C018FB7F8944091D8
:10079000AE015091AF016091B0017091B1018FBF76
:1007A0002FB7F8948091AE019091AF01A091B00164
:1007B000B091B1012FBF841B950BA60BB70BE816A8
:1007C000F9060A071B0760F71F910F91FF90EF9042
:1007D0000895019759F0FC01EE0FFF1FEE0FFF1F68
:1007E00032978FB7F8943197F1F78FBF08957894C7
:1007F00084B5826084BD84B5816084BD85B5826026
:1008000085BD85B5816085BDEEE6F0E080818160C3
:100810008083E1E8F0E08081826080838081816074
:100820008083E0E8F0E0808181608083E1EBF0E0AC
:10083000808184608083E0EBF0E080818160808350
:10084000EAE7F0E080818460808380818260808339
:100850008081816080838081806880831092C10064
:100860000895282F30E0C90186569F4FFC019491CE
:100870002A573F4FF9018491882391F0E82FF0E047
:10088000EE0FFF1FE859FF4FA591B491662329F49D
:100890008C91909589238C9308958C91892B8C93BE
:1008A0000895482F50E0CA0182559F4FFC012491C2
:1008B000CA0186569F4FFC0194914A575F4FFA0137
:1008C00034913323D1F1222331F1233021F480916B
:1008D00080008F7705C0243031F4809180008F7DB7
:1008E0008093800018C0213019F484B58F7704C03C
:1008F000223021F484B58F7D84BD0DC0263021F4D3
:100900008091B0008F7705C0273029F48091B00026
:100910008F7D8093B000E32FF0E0EE0FFF1FEE58C5
:10092000FF4FA591B491662329F48C91909589236A
:100930008C9308958C91892B8C930895682F70E087
:10094000CB0182559F4FFC012491CB0186569F4FCE
:10095000FC0144916A577F4FFB019491992319F44C
:1009600020E030E038C0222331F1233021F480919F
:1009700080008F7705C0243031F4809180008F7D16
:100980008093800018C0213019F484B58F7704C09B
:10099000223021F484B58F7D84BD0DC0263021F432
:1009A0008091B0008F7705C0273029F48091B00086
:1009B0008F7D8093B000892F90E0880F991F845815
:1009C0009F4FFC01A591B4918C9120E030E08423ED
:1009D00011F021E030E0C901089597FB092E0726A8
:1009E0000AD077FD04D049D006D000201AF47095C3
:1009F00061957F4F0895F6F7909581959F4F0895E3
:100A0000A1E21A2EAA1BBB1BFD010DC0AA1FBB1F12
:100A1000EE1FFF1FA217B307E407F50720F0A21B84
:100A2000B30BE40BF50B661F771F881F991F1A94F1
:100A300069F760957095809590959B01AC01BD011B
:100A4000CF01089597FB092E05260ED057FD04D03F
:100A5000D7DF0AD0001C38F4509540953095219589
:100A60003F4F4F4F5F4F0895F6F7909580957095E3
:100A700061957F4F8F4F9F4F0895AA1BBB1B51E17C
:100A800007C0AA1FBB1FA617B70710F0A61BB70BFE
:100A9000881F991F5A95A9F780959095BC01CD01A3
:100AA0000895EE0FFF1F0590F491E02D0994F8943E
:020AB000FFCF76
:080AB2000000000000C3020077
:00000001FF
