:100000000C9463000C948B000C948B000C948B006C
:100010000C948B000C948B000C948B000C948B0034
:100020000C948B000C948B000C948B000C948B0024
:100030000C948B000C948B000C948B000C948B0014
:100040000C948E040C948B000C945C030C948B0029
:100050000C948B000C948B000C948B000C948B00F4
:100060000C948B000C948B000000000024002700EF
:100070002A0000000000250028002B0000000000DE
:1000800023002600290004040404040404040202DA
:100090000202020203030303030301020408102007
:1000A0004080010204081020010204081020000012
:1000B0000007000201000003040600000000000029
:1000C00000002403150411241FBECFEFD4E0DEBFCF
:1000D000CDBF11E0A0E0B1E0E0E3FDE002C005909B
:1000E0000D92A43AB107D9F712E0A4EAB1E001C039
:1000F0001D92AE34B107E1F710E0C6ECD0E004C0C9
:100100002297FE010E949206C23CD107C9F70E94C5
:1001100057030C9496060C940000AF92BF92DF92A6
:10012000EF92FF920F931F93CF93DF938C01F62EE4
:100130008DE0681729F480E392E00E946C0404C00B
:1001400080E392E00E944C04DD24C0E0D0E0EF2C7C
:10015000FF248AE0A82EB12CF801808160E00E9483
:100160009005C330D10564F4F801828161E00E94FA
:10017000900560E0209709F461E0F801848106C0F1
:10018000CC30D10529F4F801828160E00E9490050D
:10019000CE010397089778F4B5016C1B7D0BC7015E
:1001A00002C0959587956A95E2F7BC016170F801E8
:1001B00084810E94900581E090E00E942805F8016A
:1001C000808161E00E94900581E090E00E94280516
:1001D000CB30D10529F4F80186810E94DD05D82EA7
:1001E0002196CD30D10509F0B7CFF801808160E0CC
:1001F0000E9490058D2DDF91CF911F910F91FF905F
:10020000EF90DF90BF90AF900895EF92FF921F9311
:10021000CF93DF937C01EB0110E004C0C7010E9483
:100220008D00182B69916623C9F7812FDF91CF913B
:100230001F91FF90EF900895EF92FF920F931F93FD
:10024000CF93DF938C01C0E0D0E0EE24FF24F801CF
:10025000808160E00E949005C330D1056CF4F80104
:10026000828161E00E94900560E0C230D10509F012
:1002700061E0F801848106C0CC30D10529F4F80191
:10028000828160E00E94900581E090E00E94280554
:10029000F801808161E00E94900581E090E00E9479
:1002A0002805CE010397089750F4F80186810E9433
:1002B000DD0520E0019709F421E0FF0CF22ACB30A4
:1002C000D10549F4F80186810E94DD05EE24892BD1
:1002D00011F4EE24E3942196CD30D10509F0B7CF87
:1002E000F801808160E00E9490056F2D70E07595A7
:1002F0006795162FEE2021F080E392E00E944C04D7
:10030000812F9E2DDF91CF911F910F91FF90EF9044
:100310000895CF92DF92EF92FF920F931F93DF9396
:10032000CF93CDB7DEB7A0970FB6F894DEBF0FBE60
:10033000CDBF7C01162F072F68E171E00E940501F7
:10034000212F302FC9018C0103C0C7010E948D00ED
:10035000F80161918F016623C1F7C7016DE00E942A
:100360008D0064EF71E080E090E00E94FE04C70120
:100370000E941C0100E010E06E010894C11CD11C19
:1003800009C0F601E00FF11F80830F5F1F4FC70107
:100390000E941C019923A9F70C0D1D1DF801108264
:1003A00080E392E06DE171E00E94540480E392E00A
:1003B000B6010E948304A0960FB6F894DEBF0FBE6C
:1003C000CDBFCF91DF911F910F91FF90EF90DF9004
:1003D000CF900895CF92DF92EF92FF920F931F93E9
:1003E000DF93CF93CDB7DEB7A0970FB6F894DEBFFB
:1003F0000FBECDBF7C01162F072F60E471E00E9475
:100400000501212F302FC9018C0103C0C7010E94B3
:100410008D00F80161918F016623C1F7C7016DE07E
:100420000E948D0064EF71E080E090E00E94FE0485
:10043000C7010E941C0100E010E06E010894C11C7D
:10044000D11C09C0F601E00FF11F80830F5F1F4F21
:10045000C7010E941C019923A9F70C0D1D1DF8016D
:10046000108280E392E065E471E00E94540480E32E
:1004700092E0B6010E948304A0960FB6F894DEBF06
:100480000FBECDBFCF91DF911F910F91FF90EF90E5
:10049000DF90CF900895AF92BF92CF92DF92EF920C
:1004A000FF920F931F93DF93CF93CDB7DEB7A09743
:1004B0000FB6F894DEBF0FBECDBF7C0164E571E0DE
:1004C0000E940501C7016DE00E948D00CC24DD244F
:1004D0005E010894A11CB11CC7010E941C0100E030
:1004E00010E009C0F501E00FF11F80830F5F1F4F7F
:1004F000C7010E941C019923A9F70A0D1B1DF801D1
:1005000010828981853411F58A818D30F9F480E378
:1005100092E066E571E00E948304C7016EE571E038
:100520000E940501C7016DE00E948D0064EF71E03B
:1005300080E090E00E94FE04C7010E941C0100E0E0
:1005400010E06E010894C11CD11C27C080E392E02A
:1005500062E671E00E94830480E392E0B5010E94AC
:10056000830468EE73E080E090E00E94FE0408944B
:10057000C11CD11CF3E0CF16D10409F0ADCF80E34C
:1005800092E06CE671E018C0F601E00FF11F808385
:100590000F5F1F4FC7010E941C019923A9F70C0D83
:1005A0001D1DF801108280E392E066E771E00E9471
:1005B000540480E392E0B6010E948304A0960FB633
:1005C000F894DEBF0FBECDBFCF91DF911F910F9189
:1005D000FF90EF90DF90CF90BF90AF900895EF9293
:1005E000FF920F931F937C01862FF7016083718325
:1005F00053834283358324831783068361E00E94FB
:100600007005F701808160E00E949005F701848108
:1006100061E00E947005F701848160E00E9490050E
:10062000F701868160E00E947005F701828161E038
:100630000E947005F701828160E00E9490051F9181
:100640000F91FF90EF9008950F931F9384EA91E02C
:100650006AE070E04BE050E02CE030E009E010E0B0
:100660000E94EF021F910F910895EF92FF920F9356
:100670001F9380E392E040E855E260E070E00E9462
:10068000990304EA11E0C8010E944B0286E9E82EB2
:1006900081E0F82EC801B7010E94EA01C801B70144
:1006A0000E9489011F910F91FF90EF9008950E9481
:1006B00036050E943503FFCF1F920F920FB60F929F
:1006C00011242F933F934F935F936F937F938F9357
:1006D0009F93AF93BF93EF93FF934091C600E09138
:1006E0002C02F0912D02CF01019660E870E00E948B
:1006F0002C069C0180912E0290912F022817390719
:1007000039F0E455FE4F408330932D0220932C02A4
:10071000FF91EF91BF91AF919F918F917F916F91D9
:100720005F914F913F912F910F900FBE0F901F90AF
:100730001895AF92BF92CF92DF92EF92FF920F93F4
:100740001F93CF93DF936C017A018B01DC01149628
:10075000AD90BC901597CB01BA0122E030E040E0AB
:1007600050E00E946106205C3D4B404F5F4FCA0144
:10077000B901A80197010E946106C901DA01019738
:10078000A109B109292F3A2F4B2F552747FD5A951B
:100790000196A11DB11DE5012883E601EE81FF81CF
:1007A00081508083EA85FB85208141E050E0CA01C9
:1007B0000E8402C0880F991F0A94E2F7282B208329
:1007C000EA85FB852081CA010F8402C0880F991F2A
:1007D0000A94E2F7282B2083EA85FB85808108882C
:1007E00002C0440F551F0A94E2F7842B8083DF91E7
:1007F000CF911F910F91FF90EF90DF90CF90BF901E
:10080000AF900895FC01A085B18521898C9190E07D
:10081000022E02C0959587950A94E2F780FFF6CFE5
:100820000484F585E02D6083089581EA91E090933A
:100830003102809330028CEA91E0909333028093EE
:10084000320285EC90E0909335028093340284EC80
:1008500090E0909337028093360280EC90E0909382
:1008600039028093380281EC90E090933B028093B0
:100870003A0286EC90E090933D0280933C0284E043
:1008800080933E0283E080933F0287E080934002A2
:1008900085E0809341020895DC01ED91FC91019087
:1008A000F081E02D099508950F931F93CF93DF9367
:1008B0008C01EB0109C02196D801ED91FC910190CA
:1008C000F081E02DC801099568816623A1F7DF91C9
:1008D000CF911F910F9108950F931F938C01DC010D
:1008E000ED91FC910190F081E02D6DE00995D8012A
:1008F000ED91FC910190F081E02DC8016AE009952D
:100900001F910F9108950F931F938C010E9454041F
:10091000C8010E946C041F910F9108951F920F92BD
:100920000FB60F9211242F938F939F93AF93BF9382
:100930008091420290914302A0914402B0914502FD
:100940000196A11DB11D8093420290934302A09392
:100950004402B09345028091460290914702A091D3
:100960004802B09149028050904CAF4FBF4F8093E6
:10097000460290934702A0934802B093490227C0D1
:100980008091460290914702A0914802B09149029D
:1009900080589E43A040B040809346029093470207
:1009A000A0934802B093490280914A0290914B0271
:1009B000A0914C02B0914D020196A11DB11D8093F2
:1009C0004A0290934B02A0934C02B0934D02809147
:1009D000460290914702A0914802B0914902815885
:1009E0009E43A040B04060F6BF91AF919F918F9120
:1009F0002F910F900FBE0F901F901895EF92FF92BE
:100A00000F931F937B018C018FB7F89440914A029A
:100A100050914B0260914C0270914D028FBF2FB7E5
:100A2000F89480914A0290914B02A0914C02B091AF
:100A30004D022FBF841B950BA60BB70BE816F906CA
:100A40000A071B0760F71F910F91FF90EF90089521
:100A5000019759F0FC01EE0FFF1FEE0FFF1F3297B9
:100A60008FB7F8943197F1F78FBF0895789484B5D4
:100A7000826084BD84B5816084BD85B5826085BD9A
:100A800085B5816085BDEEE6F0E080818160808380
:100A9000E1E8F0E0808182608083808181608083F2
:100AA000E0E8F0E0808181608083E1EBF0E080812C
:100AB00084608083E0EBF0E0808181608083EAE7FE
:100AC000F0E0808184608083808182608083808187
:100AD000816080838081806880831092C100089546
:100AE000282F30E0C90186569F4FFC0194912A5768
:100AF0003F4FF9018491882391F0E82FF0E0EE0F49
:100B0000FF1FE859FF4FA591B491662329F48C91FA
:100B1000909589238C9308958C91892B8C930895BB
:100B2000482F50E0CA0182559F4FFC012491CA0111
:100B300086569F4FFC0194914A575F4FFA013491BA
:100B40003323D1F1222331F1233021F4809180002D
:100B50008F7705C0243031F4809180008F7D8093A1
:100B6000800018C0213019F484B58F7704C022307A
:100B700021F484B58F7D84BD0DC0263021F4809191
:100B8000B0008F7705C0273029F48091B0008F7DA9
:100B90008093B000E32FF0E0EE0FFF1FEE58FF4F01
:100BA000A591B491662329F48C91909589238C9317
:100BB00008958C91892B8C930895682F70E0CB0158
:100BC00082559F4FFC012491CB0186569F4FFC011B
:100BD00044916A577F4FFB019491992319F420E0C7
:100BE00030E038C0222331F1233021F4809180009D
:100BF0008F7705C0243031F4809180008F7D809301
:100C0000800018C0213019F484B58F7704C02230D9
:100C100021F484B58F7D84BD0DC0263021F48091F0
:100C2000B0008F7705C0273029F48091B0008F7D08
:100C30008093B000892F90E0880F991F84589F4FB0
:100C4000FC01A591B4918C9120E030E0842311F057
:100C500021E030E0C901089597FB092E07260AD04C
:100C600077FD04D049D006D000201AF47095619524
:100C70007F4F0895F6F7909581959F4F0895A1E2D3
:100C80001A2EAA1BBB1BFD010DC0AA1FBB1FEE1F06
:100C9000FF1FA217B307E407F50720F0A21BB30B51
:100CA000E40BF50B661F771F881F991F1A9469F7CD
:100CB00060957095809590959B01AC01BD01CF0129
:100CC000089597FB092E05260ED057FD04D0D7DFD7
:100CD0000AD0001C38F450954095309521953F4F2F
:100CE0004F4F5F4F0895F6F79095809570956195F9
:100CF0007F4F8F4F9F4F0895AA1BBB1B51E107C029
:100D0000AA1FBB1FA617B70710F0A61BB70B881F9B
:100D1000991F5A95A9F780959095BC01CD0108952A
:100D2000EE0FFF1F0590F491E02D0994F894FFCF8A
:100D30004973207468697320612070726F6D7074DC
:100D40003F2000443A5C3E00434C462000434C4662
:100D500020526573706F6E73653A200057524620BB
:100D60000057524620526573706F6E73653A2000CB
:100D70004F505720004F505720526573706F6E735D
:100D8000653A2000450053796E6327656400495039
:100D90004100556E73796E632765640067697669F3
:100DA0006E672075700049504120526573706F6EF8
:100DB00073653A2000436C65617220526573706FF1
:100DC0006E73653A20004D652E7478740000000043
:040DD0000002040019
:00000001FF
